:100000000C94A8010C94C5010C94C5010C941B1A06
:100010000C94C5010C94C5010C94C5010C94C50148
:100020000C94C5010C94C5010C941D1F0C94F11F78
:100030000C94AC170C94C5010C94C5010C94C5012B
:100040000C94C5010C94C5010C94C5010C94C50118
:100050000C94C5010C944F180C94C5010C94C50167
:100060000C94C5010C94C5010C94C5010C94C501F8
:100070000C94C5010C94C5010C94C5010C94C501E8
:100080000C94C5010C94C5010C94C5010C94C501D8
:100090000C94C5010C94C5010C94C5010C94C501C8
:1000A0000C94C5010C94C5010C94C501000000001E
:1000B0000000000000000000290014001A000800E1
:1000C000150017002B0004211624072809220A0016
:1000D00039001D001B00060019000500000000008B
:1000E00000424C002C410000000000000000000015
:1000F000000000000000130012000C0018001C009B
:10010000000033310F340E380D320B000000380080
:1001100037003600100011000000000000422A00E5
:100120002841000000000000000000000000000066
:1001300000001E0238021F023600310200002002B9
:1001400022022602270224026352230221022F02E6
:100150003002350200000000000000000000000036
:10016000000000000000000000000000000055003A
:1001700057002D0034022D020000330237023602F0
:1001800034002E0000003100370030002F00350011
:100190000000000000000000000000003A003B00EA
:1001A0003C003D003E003F0000001E001F002000FC
:1001B000210022000000BC00BB00AA00AE00A90084
:1001C000000000000000000000000000000000002F
:1001D0000000000000000000450044004300420011
:1001E00041004000000027002600250024002300D5
:1001F000000000004F0052005100500000000000BD
:100200000000D900DA00000000000000000000003B
:1002100000000000000000000000000000000000DE
:1002200000000000000000000000000000000000CE
:1002300000000000000000000000000000000000BE
:1002400000000000000000000000000000000000AE
:10025000000000000000000000000000000000009E
:10026000000000000000000000000000000000008E
:1002700000000000635200000000000000000000C9
:1002800000000000000000000000000000AE00AF11
:1002900000DA0281FFD9F1DB20A4A62EAF00A0C0B6
:1002A000D30000A1C8D30000AED580A81F408D1494
:1002B00020000E034C0069006C0079003500380006
:1002C000000010036C0069006C00690075006D008F
:1002D000730000000403090409022200010100A0C8
:1002E000FA090400000103010100092111010001C4
:1002F00022440007058103080001120100020000EA
:100300000008D8042DEB00010102000105010906D7
:10031000A101050719E029E71500250195087501D8
:1003200081029501750881010507190029FF150053
:1003300026FF009506750881000508190129051595
:10034000002501950575019102950175039101C084
:1003500011241FBECFEFDAE0DEBFCDBF11E0A0E079
:10036000B1E0E8E4F5E402C005900D92A034B107D5
:10037000D9F724E0A0E4B1E001C01D92A936B2078C
:10038000E1F70E94F0120C9463220C940000843078
:10039000B8F46A30A8F4463098F450E096E0699FCB
:1003A000400D511D1124FA019CE3899FE00DF11DC0
:1003B0001124EE0FFF1FE455FF4F8591949108958E
:1003C00081E090E008950E94C701089581E00895BA
:1003D0000E94E601089581E008950E94E6010895D3
:1003E0000E94ED01089508950E94F3010895A6E08A
:1003F000B0E0EDEFF1E00C94D32149835A839E8362
:100400003091470189819A8131111AC03E8133238D
:1004100099F0222389F00E941507182F682F8981EF
:100420009A810E94F10669817A81812F0E94DE0DF6
:100430002696E3E00C94EF210E940307182FF3CFD8
:100440000E94150769817A81F1CFFC01262F408136
:10045000518162817381848195810E94F7010895A1
:10046000CF93DF93EC0161E00E942502BE010E9460
:10047000E801DF91CF910895CF93DF93EC0160E025
:100480000E942502BE010E94F401DF91CF910895E0
:1004900008950E94C6050E9448022FEF84E39CE065
:1004A000215080409040E1F700C0000008950E9474
:1004B00049020E94731808950E9449020E948418FC
:1004C00008950F931F93CF93DF938C0161E00E94F7
:1004D0002502EC01B8010E94F001811106C080E004
:1004E000DF91CF911F910F910895B801CE010E9425
:1004F000AA168823A1F3B801CE010E9440158823D3
:1005000071F3B801CE010E941C16882341F3F80153
:100510008581882361F0C330FCE7DF07E9F058F4F8
:10052000C115ECE7DE07A9F0C130DC47B9F0C8011E
:100530000E94EB01D5CFCB358CE7D807A9F0CC359D
:10054000ECE7DE0771F0CA35DC4789F70E944B0BF8
:10055000EECF0E945702C3CF0E94530B0E945C0251
:10056000BECF0E94410BE3CF0E944F0BE0CF0E9411
:1005700089170E94E0020E94E81408950E94E40294
:100580000E948E170895089581E008950895CF93ED
:10059000DF93D82F0E94C402C82F882319F08D2F13
:1005A0000E94C6028C2FDF91CF9108950895CF93BA
:1005B000C82F0E94C3028C2F0E94C702CF910895BA
:1005C00080E00E94D70208950E94F3160E94D7028D
:1005D0000895CF930E94F316C82F809142018C1783
:1005E00079F0C09342010E94181860934301709300
:1005F000440180934501909346018C2F0E94D702BD
:10060000CF910895ADE0B0E0E8E0F3E00C94D421A0
:10061000488759876A877B878C879D8791110E94BD
:10062000790A1F8286E0FE013896DE01119601905C
:100630000D928A95E1F78D8181110DC029813A8152
:100640004B815C816D817E818F810E94AC092D96EA
:10065000E2E00C94F021CE0101960E94300281115B
:10066000EDCFF5CFFC012481213021F480819181EF
:100670000E9447070895CF93C82F8823B9F08CEFC5
:100680008C0F813AA8F46C2F8091000190910101A8
:100690000E942417882329F08C2F0E94390A0E9477
:1006A000B20A8C2F0E94310A0E94B20ACF9108959B
:1006B00080E28C0F8830D0F7C77081E001C0880FCE
:1006C000CA95EAF70E945C0AEFCF882341F09CEFBD
:1006D000980F913A28F40E94390A0E94B20A0895AC
:1006E00090E2980F9830D8F7877091E001C0990F89
:1006F0008A95EAF7892F0E94620AEFCF1F93CF9362
:10070000DF93182FEB010E943B03209739F4812FD0
:100710000E946503DF91CF911F9108958FE99FE0BB
:100720000197F1F700C000002197EFCF70E060E083
:10073000893311F460E570E00E947E0308958823F8
:1007400021F00E945C0A0E94B20A0895882321F0D9
:100750000E94620A0E94B20A0895B0E0A0E0E3EBB2
:10076000F3E00C94CD216C01D62FC72FFC0115812D
:10077000068102950F700E94520AE82E8823E9F044
:10078000E12E1123D1F08C2F807F803451F080E254
:100790008D0F8830F8F0011104C08C2F807E8032DC
:1007A000C9F08091390282FF15C082E00E94150BCA
:1007B0000E94520A91E0E82EE926BC2EB2949FE0F6
:1007C000B922FBE0FB15B8F1EB2DF0E0EB59FD4D44
:1007D0000C94BE21E12CF1CF0C2F0F70C07F11F0D3
:1007E0000295007F112399F0002359F080E28D0FCC
:1007F000883010F0D11107C0802F0E945C0A0E943F
:10080000B20A8D2F5AC0802F0E946C0AF8CF8D2F0C
:100810000E946503002379F080E28D0F883010F08C
:10082000D11104C0802F0E94620A03C0802F0E9451
:10083000720A0E94B20AEB2DE850FF0B349720F4A5
:100840000E94F3160E94D702EE2089F00E944E0A01
:1008500080FD0DC0F60115820E94480A0E944F06D5
:10086000C6010E9499050E94480A0E945F06CDB702
:10087000DEB7E9E00C94E9212C2F2F70F22EC07F17
:10088000C03219F0F29480EFF822DD2341F0D1302C
:10089000D1F1112309F444C00023F1F0B2CF8091CB
:1008A000390282FD15C0112359F0FF2029F08F2D48
:1008B0000E945C0A0E94B20A80E00E943B03BBCF08
:1008C00080E00E946503FF2009F4B5CF8F2DABCFE8
:1008D000112369F0011104C08F2D0E949F03ABCF3B
:1008E000013009F0A8CF8F2D0E94900AA4CF0111EA
:1008F000A2CF8F2D0E94A6038F2D0E949C0A8F2DC0
:100900000E94800A98CF112321F0063008F093CF7F
:10091000E3CF053008F08FCF8F2D0E94A6038BCF39
:100920000023D1F3D93349F43FEF87EE93E0315000
:1009300080409040E1F700C000008D2F0E946503C9
:100940007ACF8C2F8370A1F5111175CF4D2F429561
:1009500046954770440F440F2D2F2F7030E0042E22
:1009600002C0220F331F0A94E2F790E080E0D4FF28
:1009700009C08FE090E002C0880F991F4A95E2F706
:1009800080959095C695C695C370822B932BC230E7
:1009900049F058F4C13019F00E941F064CCF0E9454
:1009A000160649CF0E94280646CF0E94130643CF61
:1009B0008695112311F08C2F8170882309F43BCF89
:1009C0004D2F429546954770440F440F2D2F2F70A1
:1009D00030E0042E02C0220F331F0A94E2F790E0A9
:1009E00080E0D4FF09C08FE090E002C0880F991F1B
:1009F0004A95E2F780959095C695C695C370822B6F
:100A0000932BC23049F058F4C13019F00E948A0685
:100A100012CF0E9481060FCF0E9493060CCF0E9436
:100A2000370609CFCF70112329F08C2F0E944F0673
:100A30008D2F53CF8D2F0E94A6038C2F0E945F060F
:100A4000FACED23F41F160F4D03FB9F0D13F81F00E
:100A5000112309F446C00111D4CE8C2F8F711FC011
:100A6000D33F01F1D43FA1F78091390282FD24C028
:100A70008C2F8F71112311F312C0112341F0053017
:100A800008F0D9CE8C2F8F710E947106D4CE06301B
:100A900008F0D1CEF7CF8C2F8F711111CFCF0E94DC
:100AA0004F06C9CE112329F08C2F8F710E94430667
:100AB000C2CE0E943E06BFCE112349F0CF718C2FCB
:100AC0000E944F0663E08C2F0E94F70AB4CE81E0AB
:100AD0000E94150B023008F4AECE82E00E94150B86
:100AE000AACE002359F0D93309F027CFEFEFF7EE64
:100AF00023E0E150F0402040E1F71DCF8C2F8F71B3
:100B00009DCF0F931F93CF93DF93EC016881798181
:100B10008D810E9452078C010E949C060E94120641
:100B2000B801CE010E94AD03DF91CF911F910F91CB
:100B30000895CF93DF93EC018C81882399F0CE0147
:100B40000E946102811111C00E94520A882351F053
:100B50008D81882339F08091390282FF03C082E0C1
:100B60000E94150BDF91CF910895CE010E9481055F
:100B7000CE010E943C02F6CF0E94790A0E94B20A7E
:100B800008950E94410A0E94BC0508950E94690AC6
:100B90000E94C105089592959F70963091F058F487
:100BA000925F9F70923058F4803F19F030F4883E85
:100BB00030F481E008959A5FF4CF843FD1F380E070
:100BC0000895883EB0F3813FD1F7F3CFFC01248133
:100BD000222339F0808191810E9447070E94CB0532
:100BE000089580E00895A6E0B0E0E9EFF5E00C9408
:100BF000D4212696E2E00C94F021A7E0B0E0E3E0F7
:100C0000F6E00C94D4212796E2E00C94F0210895AC
:100C10000E94070608950E94080690936B01809336
:100C20006A01089508950E940B06089520916A01B3
:100C300030916B01822B932B0E940B06089520911B
:100C40006A0130916B01822393230E940B06089561
:100C500020916A0130916B01822793270E940B0635
:100C600008950E94070608950E94310608950E9483
:100C700034069093690180936801089590E080E0C4
:100C80000E943706089521E030E0A90102C0440F18
:100C9000551F8A95E2F7CA010E943706089521E0A0
:100CA00030E002C0220F331F8A95E2F7809168017D
:100CB00090916901822B932B0E943706089521E0C1
:100CC00030E002C0220F331F8A95E2F7209530955D
:100CD0008091680190916901822393230E943706D5
:100CE000089521E030E002C0220F331F8A95E2F719
:100CF0008091680190916901822793270E943706AD
:100D000008952091680130916901822B932B0E94F4
:100D10003706089520916801309169018223932359
:100D20000E94370608952091680130916901822759
:100D300093270E94370608950895262F277091E083
:100D400001C0990F2A95EAF723E0769567952A95D1
:100D5000E1F7660F771F660F771FFA01E60FF71F9F
:100D600050E040E0682F70E08191DF0111979B0116
:100D7000042E02C0369527950A94E2F7217021953A
:100D80002827292328272C934F5F5F4F4430510594
:100D900059F70895A82FA77023E0969587952A956F
:100DA000E1F7880F991F880F991FFB01E80FF91FC2
:100DB00050E040E080E0219130E00A2E02C03695FC
:100DC00027950A94E2F721703327042E01C0220FE1
:100DD0000A94EAF7822B4F5F5F4F4430510559F771
:100DE0000895262F9A3070F4863060F4682F70E0F2
:100DF00086E0989F600D711D112448E451E0822F18
:100E00000E949D060895292F9A3068F4863058F480
:100E100090E068E471E036E0239F800D911D11247D
:100E20000E94CA06089580E00895B0E0A0E0EBE1DA
:100E3000F7E00C94CD217C010091680110916901CB
:100E400080916A0190916B01082B192BCFE0D0E0C3
:100E5000CC24C394D12CBC2EC6010C2E02C0880F0A
:100E6000991F0A94E2F780239123892B49F4219753
:100E700090F7B12C8B2DCDB7DEB7E9E00C94E921CA
:100E8000B7018C2F0E94EA0D019789F3F3CFCF931E
:100E9000DF93EC010E941507BE010E94EA0DDF916D
:100EA000CF9108951F93CF93DF93EB01909147016A
:100EB000992339F0CB010E944707DF91CF911F9111
:100EC0000895882369F0CB010E941507182F682F19
:100ED000CE010E94F106BE01812F0E94EA0DEDCFE6
:100EE000CB010E940307182FF6CF1F93CF93DF93F8
:100EF000C0916C0117E080916D018C1304C0DF91EB
:100F0000CF911F910895D0E01C9FF0011D9FF00D1F
:100F10001124E259FE4F2081318142815381648145
:100F2000758186810E94FD052196C770E4CF2091CE
:100F3000A6013091A7014091A8015091A9016091AB
:100F4000AA017091AB018091AC010E94FD0508954A
:100F5000CF93DF938091AC01807F09F04DC08091E9
:100F6000AB01882309F448C0E0916C0150916D01F8
:100F7000C091A701D091A6016091A8017091A9012B
:100F800047E05E17C9F18E2F90E0E49FF001112435
:100F9000E259FE4F2481222391F1489FF001499F9D
:100FA000F00D1124DF01A259BE4F11962C9111971B
:100FB0002C1325C02C912D1322C015962C9115971A
:100FC00021111DC012962D913C91261B370B283CF8
:100FD0003105A8F48091AC018F7080618093AC01E1
:100FE000EC58FE4F80818F708061808386EA91E0AB
:100FF0000E9499050E947507DF91CF910895FC0129
:101000003196E770BECF482F20916C0190916D0111
:1010100057E0291302C080E0089530E0529FF001AC
:10102000539FF00D1124E259FE4F8181681306C0D1
:101030008081481303C085818111EECF2F5F3F4F20
:101040002770E7CFA4E1B0E0E8E2F8E00C94CA2111
:101050008C0186E0F801DE011F9601900D928A95C1
:10106000E1F7F8018481E58096EAA92E91E0B92E96
:101070009091AA0191111FC08823D1F0EE20A9F010
:10108000C8010E94E605F82E882379F087E0F80170
:10109000D50101900D928A95E1F7C5010E943203B6
:1010A0000E94A8070E9497075FC0C8010E94990587
:1010B000FF24F39459C0C080D18082809380F09047
:1010C000AB012091A8013091A901A401421B530B4F
:1010D000FF2009F4F9C0483C510508F0A7C0882357
:1010E00009F442C09091A7018091AC01282F207F84
:1010F00009F05CC09D1116C09091A601C91212C0E2
:10110000E1104EC08F7080618093AC010E94970700
:1011100086EA91E00E9499058091AC01F8018683EE
:10112000F12C22C0E1103CC06D2D8C2D0E940308D3
:101130006D2D8C2D0E940308E82E8111F1CFCF86F2
:10114000D88A8F8598890E944707292F22952F706A
:10115000243078F49F702230A8F09923B9F0F80178
:101160009681907F99F4FE2C8F2D6496ECE00C9480
:10117000E6212A5F2F70223068F0C8010E9499058D
:10118000EF2CF1CF992311F0882369F3805E88302A
:1011900050F3F3CF803F38F3815F833070F7E3CFB4
:1011A0008091AC0181608093AC01BACF9D1113C0D6
:1011B0009091A601C9120FC0E1100DC08683C8012D
:1011C0000E94990587E0F801A6EAB1E001900D922E
:1011D0008A95E1F767CFC8010E94E605882309F4E4
:1011E00064CFEE2009F461CF8091AC01803288F0A9
:1011F0002091A6013091A701398728879B868A868E
:101200009091AA019C871D868E87CE0108960E9428
:10121000990587E0F801A6EAB1E001900D928A9560
:10122000E1F70E94A8070E94970742CF9091AC0176
:10123000292F207FA1F4682D9A8A898AA6017A89AC
:101240009E2D0E94F30586EA91E00E94990587E0B1
:10125000F50111928A95E9F70E94970761CF8823DB
:1012600009F482CF8091A7018D1110C08091A60151
:10127000C8120CC0E1100AC09683C8010E949905EB
:1012800087E0F50111928A95E9F76ECFC8010E94B7
:10129000E605882309F409CFEE2009F406CF8091F2
:1012A000AC01803208F4B5CF2091A6013091A7019E
:1012B0003A8329839C828B829091AA019D831E820E
:1012C0008F83CE010196A3CF483C5105B8F5882302
:1012D00009F4EECEFE2CEE2009F4E7CE8091A701B2
:1012E0008D111EC08091A601C8121AC08091AC0158
:1012F00080FD0DC0982F907F51F08683903F09F4B8
:101300005ECF982F907F905F8F70892B57CF87E0AB
:10131000F801A6EAB1E001900D928A95E1F724CF99
:10132000C8010E94E605811174CF8091AC018160F3
:101330008093AC01C8010E94990516CF682D9A8A46
:10134000898AA6017A899E2D0E94F30587E0F5011E
:1013500011928A95E9F7A6CEAEE0B0E0E2EBF9E0B3
:101360000C94D321288739874A875B876C877D87D0
:101370008E87CE0108960E9422088823B1F06C85E2
:10138000662341F0288539854A855B857D858E8574
:101390000E94FD0517E080916C0190916D01891309
:1013A0003DC02E96E3E00C94EF2187E0FE013896D5
:1013B000DE01119601900D928A95E1F78C858823C4
:1013C00049F320916D0130E0C9010196877099279A
:1013D00040916C014817190699F097E0929FD0014F
:1013E000939FB00D1124A259BE4FFE01319601907A
:1013F0000D929A95E1F780936D010E947507CACF0F
:101400000E94C60510926D0110926C0187E0E6EA19
:10141000F1E0DF011D928A95E9F7BCCF819FC00101
:10142000112482599E4F0E942208882309F4B9CFC3
:10143000E0916C011E9FF0011124E259FE4F2081C2
:101440003181428153816481758186810E94FD05CD
:1014500080916C0190E001968770992780936C01D0
:101460009ACF682F80910001909101010E945A1734
:101470000895682F80910001909101010E945D17ED
:10148000089580910001909101010E9460170895D4
:101490008091B50186958695869508958091B501D0
:1014A000877008959091B501977081E009F480E00C
:1014B00008958091C10108959091C101892B809375
:1014C000C101089580959091C10198239093C10125
:1014D00008951092C10108959091C001892B8093C5
:1014E000C001089580959091C00198239093C00108
:1014F00008951092C001089508950E947C0A0895ED
:101500009091B601292F282331F08095892380936B
:10151000B6010E947D0A089508950E948C0A0895DC
:101520009091B701292F2823281729F0982B909301
:10153000B7010E948D0A08959091B701292F2823A1
:1015400031F0809589238093B7010E948D0A089518
:101550008091B701882329F01092B70180E00E94A2
:101560008D0A0895CF93DF93E0910001F09101017E
:101570008091C1018083E0910001F091010180819F
:101580009091C001892B80839091B701992381F0BC
:10159000E0910001F09101018081892B808380918D
:1015A0000001909101010E94121781110E94A80A66
:1015B000C0910001D091010148E050E06DEA71E076
:1015C000CE010E94FB21892B59F088E0FE01ADEA93
:1015D000B1E001900D928A95E1F7CE010E940717C4
:1015E000DF91CF91089508950E94F30A0895909194
:1015F000390292FF11C098E0899F90011124622B5B
:101600006093B5010E944F068091B501869586953D
:1016100086950E94F40A08950E944F06089510923C
:10162000B50180E00E94F40A08959091B50180957B
:1016300089238093B501282F277069F4891759F001
:101640009091390292FF07C08695869586950E94F3
:101650005F060E940F0B08959091390292FB22279A
:1016600020F9281769F080FB92F990933902809154
:101670003802909139020E94740B82E00E94150B8F
:1016800008958091390282FB882780F991E08927AB
:101690000E942C0B089581E00E942C0B089580E09D
:1016A0000E942C0B08956FEF7FEF90E080E00E9486
:1016B0004D22089590E080E00E94192221E0863EAC
:1016C0009E4F09F020E0822F089582E090E00E9472
:1016D0001122089583E090E00E941122089584E091
:1016E00090E00E9419220895BC0184E090E00E94DD
:1016F0004D220895AB01BC018FE090E00E94412291
:101700000895AB01BC0183E190E00E94412208955D
:1017100060E070E0CB010E94810B089560E070E012
:10172000CB010E947A0B0E94880B0895A8E0B0E0DC
:10173000ECE9FBE00C94D42166EE7EEF90E080E0D3
:101740000E944D2260E082E090E00E942F2260E043
:1017500083E090E00E942F2210926B0110926A01A8
:1017600060E074E184E090E00E944D2260E086E059
:1017700090E00E942F226FEF87E090E00E942F22DE
:1017800040E050E0BA0188E090E00E94412260E031
:1017900084E290E00E942F2260E087E190E00E94C6
:1017A0002F2260E08CE090E00E942F2260E08DE02C
:1017B00090E00E942F2219821A821B821C821D82B5
:1017C0001E821F82188648E050E068E170E0CE017A
:1017D00001960E941F2240E050E0BA0180E290E0B2
:1017E0000E9441220E948E0B2896E2E00C94F02188
:1017F0000E94960B0895682F8EE090E00E942F22A1
:101800000895A6E0B0E0E7E0FCE00C94D2210E944D
:101810000C188C018091C2019091C301801791072F
:1018200081F019821A820E940C18682F49815A810E
:10183000792F80E090E00E9402031093C30100938F
:10184000C2012696E4E00C94EE210E94060F6093FC
:10185000D2017093D3018093D4019093D50160930A
:10186000CE017093CF018093D0019093D101089560
:10187000089508950E94380C089508950E943D0C23
:10188000089581E0089580E29FE00E94FD120E9489
:10189000390C0E943A0C08950E94EC1008950895A6
:1018A00008950E944F0C0E94500C08950E94230F2F
:1018B0000E94D60208950E9403180E94E00E0E9422
:1018C00007110E944D100E94560C0E94021380E0E6
:1018D0000E9480130E9411110E943E0C0895A6E000
:1018E000B0E0E5E7FCE00C94CA210E94410CC82E50
:1018F000811110C00E94010CC12C0E94EC100E94AA
:101900000815C1100E94E3130E94E9022696ECE03C
:101910000C94E6210E94701084ECA82E81E0B82E71
:10192000750110E0F70101917F01812F0E94490F9D
:101930001F5F1A3009F441C00817A1F38091D60146
:1019400081FD0E944F0F0E944C0C982E10E08824BD
:101950008394812F0E94490F082FF50181915F0127
:10196000081729F1F12CEE24E394D02ED8268D2DE2
:101970008E21A9F0992099F0F9821A830E940C18FF
:101980009C838B838D8291E0802F8E2109F490E0DF
:1019900049815A816B817C818D810E940203F3947D
:1019A000EE0CF6E0FF12E3CFF501319700831F5FE5
:1019B0001A3079F60E94250CA0CF0813BFCF9ACF1A
:1019C0001F93CF93DF930E94EF0DEC01C11582E5C9
:1019D000D80708F03FC0C11590E5D90708F0C2C08C
:1019E000C83ED105C0F4C03ED10580F4C53AD1054A
:1019F00048F4C430D10550F4C130D10539F0D0E0FD
:101A0000C0E004C0CD3CD105D0F3D065CE01DF915C
:101A1000CF911F910895C11580E4D80708F053C0F5
:101A2000C11590E2D90708F0B7C0C11581E0D80709
:101A300030F38D2F0E94910E182FCE0199270E940E
:101A4000EF0DC12FD0E0DC2FCC27CC27DF71C82BC6
:101A5000D92BDCCFC03892E5D907A8F4C03682E58F
:101A6000D80708F063C0C03492E5D90708F049C030
:101A7000C03282E5D80788F1CF71D0E0DC2FCC27C7
:101A8000C16FD06AC3CFC03C92E5D90780F48C2FD8
:101A90008F71C03AD24508F45EC00E94910EC82FE3
:101AA000D0E0DC2FCC27CC27DF71D062AFCFC03E97
:101AB00082E5D80708F0A3CFDC2FCC27CC27DF7135
:101AC000C06FD06AA3CFCE0199270E94EF0DCC271B
:101AD000DF70C82BD92BD06A99CF2C2F269526954D
:101AE00090E2299F900111248C2F8370C1E0D0E0F7
:101AF00002C0CC0FDD1F8A95E2F7C22BD32BDD6825
:101B000085CF2C2F26952695277080E2289F90015F
:101B100011248C2F8370C1E0D0E002C0CC0FDD1FF8
:101B20008A95E2F7C22BD32BDC6870CF2C2F269539
:101B30002695277090E2299F900111248C2F8370A5
:101B4000C1E0D0E002C0CC0FDD1F8A95E2F7C22BC6
:101B5000D32BDA685BCFC82FD0E0DC2FCC27C46F43
:101B6000D06A54CF8C2F8F710E94910E55E0D6957C
:101B7000C7955A95E1F7CF70D0E0DC2FCC27282FFE
:101B800030E084FF05C044E0220F331F4A95E1F79F
:101B9000C22BD32BD0693ACF8D2F8F710E94910E1B
:101BA000182FCE0199270E94EF0DC12FD0E0DC2F16
:101BB000CC27CC27DF71C82BD92B77CF462F7A3093
:101BC00030F4663020F4672F0E94E301089590E01E
:101BD00080E008950E94DE0D0E94E00C0895823896
:101BE0009105B9F1B0F48133910509F47DC048F451
:101BF0008932910509F46DC08A32910509F47BC0E0
:101C000008958533910509F45FC08933910509F181
:101C10000895833E9105D9F138F4803E910529F16C
:101C2000823E910579F10895863E9105D9F1873E6E
:101C3000910509F43EC0843E910541F52091390299
:101C400021FF24C08091380284FD19C087EE90E006
:101C5000089520913802237009F05AC0209139026A
:101C600023FF14C089E290E008952091380220FDFE
:101C700038C03091390230FF09C024FF43C090E0E2
:101C800080E008952091380222FDF7CF0895209139
:101C9000380222FD3AC03091390230FD39C024FFAC
:101CA000F5CFEDCF2091380223FFF0CF24FDE7CF11
:101CB000CDCF2091380223FD2EC03091390231FF63
:101CC000EECF84EE90E008952091380225FFDECF1C
:101CD000C9CF2091380225FD21C02091390223FF70
:101CE000D5CF89E390E0D2CF2091380226FFCECF26
:101CF0008AE290E008952091380226FFC7CF81E361
:101D000090E0089583EE90E0089582EE90E00895CB
:101D100080EE90E0089586EE90E0089585E390E0EF
:101D200008959091380292FF10C041E0282F24714D
:101D3000243009F040E031E0282F2871283009F0E4
:101D400030E0431711F02CE0822793FF10C041E0F0
:101D5000282F2471243109F040E031E0282F287128
:101D6000283109F030E0431711F02CE08227309140
:101D7000390230FF10C051E0282F2171213009F0C5
:101D800050E041E0282F2871283009F040E0541736
:101D900011F029E0822731FF10C041E0282F217186
:101DA000213109F040E031E0282F2871283109F075
:101DB00030E0431711F029E0822794FD877E0895D3
:101DC00010923402109235021092360210923702AD
:101DD0000895CF92DF92EF92FF926B017C010E94F7
:101DE000EC1081110EC00E941818C61AD70AE80A12
:101DF000F90AC0923402D0923502E0923602F09293
:101E00003702FF90EF90DF90CF9008950F931F93CC
:101E10000E94EC10882329F00E9418181F910F913E
:101E200008950E94181800913402109135022091F3
:101E3000360230913702600F711F821F931FEECF61
:101E400080E0089508950E945A0B811102C00E94FB
:101E5000F80B0E94650B8093D6010E946F0B909344
:101E60003902809338020E94220F0E946A0B90E090
:101E70000E94130680916801909169010E943406C6
:101E8000089508950E94410F089508950E94450FF6
:101E90000895E82FF0E0EB5BFD4F808108950895F1
:101EA00080EA8A95F1F7089500C008950E94500FC6
:101EB000089508950E94590F0895A5E0B0E0E3E663
:101EC000FFE00C94D0210E94EC10F82E60914F029C
:101ED000882309F440C085E0E82E8E010F5F1F4F74
:101EE000F8018E2D11928A95E9F7862F90E0B801BE
:101EF0008B5B9D4F0E941F118823B9F080913A029D
:101F000090E045E050E0B8018B5B9D4F0E94FB21C3
:101F100021E02093D701892B91F4F12C0E94460FE8
:101F20008F2D2596E6E00C94EC218091D701882333
:101F3000A1F3F8011192EA94E9F71092D701A09168
:101F40003A02B0E0AB5BBD4F85E0F80101900D9225
:101F50008A95E1F7E3CF70E06B5B7D4F80913A02A9
:101F600090E08B5B9D4F0E94A6110E945A0FD8CF24
:101F7000F894E82FE295EF70F0E031A1282F2F7050
:101F800081E090E001C0880F2A95EAF7982F90959C
:101F9000932391A392A1892B82A3789408950F9300
:101FA0001F93CF93DF93C1E3D1E089918F3F11F06D
:101FB0000E94B80F81E0C633D807B9F7CBE2D1E071
:101FC00001E311E089918F3F11F00E94B80F0C17C7
:101FD0001D07C1F7DF91CF911F910F910895B0E0D8
:101FE000A0E0E5EFFFE00C94CE21EC01D62E062F09
:101FF00010E0C8018F5C9E4F7C01FC0180818F3F07
:1020000009F444C0F894E82FE295EF70F0E091A154
:102010008F7021E030E001C0220F8A95EAF7892F06
:10202000822B81A382A12095282322A378940E9449
:10203000540FEBE2F1E031E0C12C21912F3F59F137
:10204000A22FA295AF70B0E090968C9190E02F7087
:1020500002C0959587952A95E2F780FD1CC0832FD5
:10206000C82A330F81E0E133F80739F7F70180819F
:102070008F3F11F00E94B80F61E0C11001C060E015
:102080008D2D0E94560FC00FD11FC882CDB7DEB76D
:10209000E8E00C94EA2180E0E3CF80910201809196
:1020A000020195E0811190E090934F0285E0891B39
:1020B00080933A020E94CF0F8AE0E5E4F2E0DF016C
:1020C000982F1D929A95E9F7EBE3F2E0DF011D925C
:1020D0008A95E9F785E00E94AE100E94420F0895AC
:1020E000AAE0B0E0E6E7F0E10C94D1218E010F5FA9
:1020F0001F4F8AE0F80111928A95E9F7F12C6F2DB4
:10210000C8010E94EF0FF394F5E0FF12F8CF4AE008
:1021100050E0B8018BE392E00E94FB2121E00097A0
:1021200009F420E0892B41F08AE0F801ABE3B2E04A
:1021300001900D928A95E1F760914F0270E06B5B20
:102140007D4F45E08BE392E00E94AF10182F0E9474
:102150005D0F812B2A96E5E00C94ED210895CF9236
:10216000DF92EF92FF920F931F93CF936C017B014D
:10217000042F222349F081E08093DA010E940C1899
:102180009093D9018093D801C091DA01C1110AC09E
:10219000C0E08C2FCF911F910F91FF90EF90DF90B7
:1021A000CF9008958091D8019091D9010E94241870
:1021B000059770F310E0A801B601C7010E94FB214A
:1021C000892B41F0A801B601C7010E940822109294
:1021D000DA01DFCFC0E0FBCF8091DD01811107C0C4
:1021E0000E949D21882351F081E08093DD0181E0F0
:1021F0009091DD01913009F080E0089582E08093B4
:10220000DD010E949821F3CF0E94EC1008950E94F6
:102210000411809302010E94EC1081110E9455115B
:1022200008950E94EC10811102C00E945811089577
:1022300081E09091DE019A3008F080E008950F93DC
:102240001F93CF93DF93EC018B018091DE018A30E5
:10225000B8F4B801CE010E94A311C82F811122C089
:102260008091DE018F3FB9F40E940C189093DC013D
:102270008093DB018C2FDF91CF911F910F910895F7
:102280008091DB019091DC010E942418843F9140F1
:1022900000F7C0E0EFCF8F5F8093DE018A3020F738
:1022A000C1E0E8CF1092DE01E5CF0E94D519089574
:1022B0000E94D8190895B0E0A0E0E1E6F1E10C94A5
:1022C000CF217901C82F880FDD0B41155105A9F0E9
:1022D000FE0193E0EE0FFF1F9A95E1F7ED5FFE4FD1
:1022E0008181928181529E4F208130E042175307B5
:1022F00008F49A01A9010E940822CE010E94C11A85
:10230000D82E8823D1F001151105B9F083E0CC0F48
:10231000DD1F8A95E1F7FE01ED5FFE4F438150E03E
:102320000417150708F4A801CD5FDE4F6C817D818D
:1023300061527E4FC7010E9408228D2DCDB7DEB7B6
:10234000E7E00C94EB210E94951208950E94AC12D4
:102350000895A4E0B0E0EFEAF1E10C94D22160919D
:10236000F6017091F7018091F8019091F9010E94B6
:10237000331811E0643671058105910518F10E944A
:10238000060F6E5F7F4F8F4F9F4F69837A838B83DA
:102390009C8310E000E030E020E044E050E0BE012B
:1023A0006F5F7F4F82E00E945B11182F882351F0EE
:1023B0000E9418186093F6017093F7018093F8015A
:1023C0009093F901812F2496E4E00C94EE21B0E083
:1023D000A0E0EDEEF1E10C94CC217C015B016A01FF
:1023E0000E94181101E010E0882311F00AE010E0CB
:1023F000C1E0D0E0B501C701F6010995811104C023
:1024000021960C171D072CF4CDB7DEB7EAE00C942B
:10241000E821CC9F9001CD9F300D300D112490E02C
:1024200080E045E34A95F1F7000001968217930793
:10243000C1F7E0CFA6E0B0E0E0E2F2E10C94CC21FD
:102440007B01C0903601D090370101E010E09E0181
:102450002A5F3F4F50E040E070E060E080E00E9483
:102460005B11182F882309F448C056018FEFA81A72
:10247000B80A6091F2017091F3018091F40190919A
:10248000F5010E943318643671058105910568F1E4
:1024900005E010E09E012F5F3F4F50E040E070E00C
:1024A00060E081E00E945B11D82E65E070E0C5011C
:1024B0000E94031311E09E81981310E01D2141F149
:1024C0000E9418186093F2017093F3018093F40155
:1024D0009093F50185E0FE013196ADEEB1E00190FB
:1024E0000D928A95E1F711E013C065E070E0C50137
:1024F0000E9403139E818913CBCF85E0F6013196AC
:10250000DE01119601900D928A95E1F71111E2CF4B
:1025100085E0EDEEF1E0D70101900D928A95E1F7AB
:10252000812F2696EAE00C94E8210F931F93CF9316
:10253000DF93EC018B014AE152E10E94E71188230D
:1025400031F049EA51E1B801CE010E94E711DF9173
:10255000CF911F910F9108950F931F93CF93DF9306
:10256000C0913601D0913701CE01019625E0FB01E3
:10257000DC0101900D922A95E1F765E070E00E9480
:10258000031388836E817F81888599850091E90195
:102590001091EA012091EB013091EC016017710775
:1025A0008207930751F06093E9017093EA018093E9
:1025B000EB019093EC010E94E90EDF91CF911F9106
:1025C0000F9108950E94801C0E945B0C0E948D1C3C
:1025D00008950E94921C0E946F0C0E94AC1C0895EA
:1025E0000E94A5170E94661C0E94430C0E94E212E2
:1025F0000E94E9120E94510CFBCF909341018093FD
:10260000400108950895FC01680F791F8FEF91E351
:10261000E617F70709F408952191822728E030E0B2
:1026200087FF06C0880F892721503109C9F7F0CFED
:10263000880FFACFAB0124E630E0BC0188E70E94A6
:102640002F1921E0892B09F020E0822F0895B0E0B6
:10265000A0E0EDE2F3E10C94CE216C017B0164E695
:1026600070E088E70E9495188C01E601EC0CFD1CD7
:10267000CE15DF0561F40E94771981E0011511057F
:1026800009F080E0CDB7DEB7E8E00C94EA2117FD51
:10269000F2CFFE01849164E670E00E9401198C0182
:1026A0002196E6CF0F931F939B0104E610E0AC0147
:1026B00060E488E70E94501921E0892B09F020E0AE
:1026C000822F1F910F9108950E948F1808950895E9
:1026D0000E9467130895E0E5F2E080E092E0DF01F8
:1026E0009C011D9221503040E1F7F0935704E09394
:1026F00056048FEF9FEF9093200280931F0208955E
:10270000CF930E9467130E94681380931B0280FD81
:1027100011C080E880931A020E9464136BE070E09D
:1027200087EA92E00E942713811106C0C0E08C2F37
:10273000CF91089580E2EECF80911B0265E070E0BA
:1027400081FD27C082EA92E00E942713882371F35B
:102750006DE070E080E992E00E942713C82F882383
:1027600029F30E941818605A75418F4F9F4F60934C
:1027700052047093530480935404909355040E9420
:102780006B1381E080931E0280931D0210921C0245
:10279000CECF8DE992E0D8CF20911A0236E0839F08
:1027A000C0011124629F800D911D1124811522E02A
:1027B000920714F090E080E0805B9D4F9093570467
:1027C00080935604089580911E02811103C0809168
:1027D0001D0208950E941818605A75418F4F9F4F2F
:1027E000609352047093530480935404909355045F
:1027F00080911D028111EBCF62E070E08EE892E0E3
:102800000E942713882319F381E080931D02DFCFF4
:10281000B0E0A0E0EEE0F4E10C94C82180911F024A
:1028200090912002892B09F4B6C080911E02882362
:1028300009F4B1C080911C028111ADC00E94E31364
:1028400020911F02309120022115310509F4A3C007
:1028500090E041E050E0092F10E0EA01092E02C0AB
:10286000CC0FDD1F0A94E2F7BE0162237323672BAE
:1028700011F49F5FF0CF80911B0280FF91C0990FF0
:10288000990F990F90931D0110922001995F9093D9
:102890001E0183E08093210167E070E08BE191E00D
:1028A0000E941A13882309F476C0980145E0220F8C
:1028B000331F4A95E1F780911B0280FF83C0EAEF46
:1028C000F1E080E2DF011D928A95E9F70CE311E067
:1028D00088E3E82E81E0F82E97E0992E88248394EF
:1028E000D801ED918D01D7016D917D01620F732F9C
:1028F000711D605B7D4FF0E0E650FE4F50E040E020
:10290000792C741AA82C042E01C0AA0C0A94EAF798
:102910006B0180E0D6019D916D019A21A72DA81B26
:10292000A770BA2E0A2E000CBB0B692E01C0660CD4
:10293000BA94EAF7B62CB195A195B109A770BB2757
:1029400001C09695AA95EAF7A62DA92B90819A2BFE
:1029500090838F5F8830F1F64F5F5F4F319648303C
:10296000510571F681E00034180709F0B9CF60E233
:1029700070E08AEF91E00E945213882361F0C095C5
:10298000D09580911F0290912002C823D923D09323
:102990002002C0931F02CDB7DEB7EEE00C94E42115
:1029A0009295990F907690931D01980136952795F1
:1029B0003695279520932001915E90931E012093D8
:1029C00021016ACF60E270E0C901805B9D4FD3CFE7
:1029D00080911D0290911E02911103C091E0892700
:1029E0000895882369F062E070E08CE892E00E942C
:1029F0002713811103C080911D02089510921D02BA
:102A000080911D02EBCF81E008950E940315089587
:102A10000F931F9380911E02882379F180915004B7
:102A2000909151040E942418C29760F00E940C18E3
:102A3000909351048093500460E080E00E94CC1396
:102A40000E9405150E94081480911D028823A9F098
:102A50000E941818009152041091530420915404BC
:102A600030915504601B710B820B930B6F3F7F4FAE
:102A70008F4F9F4710F40E94E8141F910F91089503
:102A8000CF93DF93EC01FB018581882309F4D2C049
:102A90009E0130572332310508F0B2C00E946F0BFF
:102AA0009093390280933802FE01E150F047E23200
:102AB000F10520F4EF58FD4D0C94BE2180913802B1
:102AC00081608093380293C080913902886080933E
:102AD00039028DC0809138028260F3CF8091380234
:102AE0008460EFCF809138028860EBCF809139020B
:102AF0008160EDCF809139028260E9CF8091380208
:102B00008061DFCF809138028062DBCF8091380214
:102B10008064D7CF0E94C605809138028068D1CFEB
:102B2000809138028C60CDCF809139028360CFCF05
:102B3000809138028E7FC5CF80913902877FC7CFC1
:102B4000809138028D7FBDCF809138028B7FB9CFC5
:102B500080913802877FB5CF809139028E7FB7CFC1
:102B6000809139028D7FB3CF809138028F7EA9CFBB
:102B7000809138028F7DA5CF809138028F7BA1CFC5
:102B80000E94C605809138028F779BCF80913802D2
:102B9000837F97CF809139028C7F99CF80913802C3
:102BA00082FB992790F921E0922790FB82F990FB14
:102BB00083F987CF80913902982F909591708E7FFD
:102BC000892B90FB81F983CF90913802892F8F7BDD
:102BD00096FF806476CF0E94C60590913802892FB7
:102BE00097FB87F980586DCF81E00E94FB0B8091A5
:102BF0003802909139020E94740B0E94C60580E051
:102C0000DF91CF91089580E0F0CF90913802892F25
:102C10008F7E94FF806155CF90913802892F8E7FEF
:102C200090FF81604ECF90913902892F877F93FF6B
:102C300088604DCF81E0E4CFCF93DF93EB01863105
:102C40009C4711F50E94590A9D81992399F08A7A2F
:102C500091E009F490E090932102811109C089E28A
:102C60000E94310A0E94B20A80E0DF91CF9108955C
:102C700085E3F6CF80912102811104C089E20E9490
:102C8000390AF0CF85E3FBCF81E0EFCF0F931F939D
:102C9000CF93DF93C42FD22FFC0185818823C9F005
:102CA000409324020E940C189093230280932202E6
:102CB00080E28C0F883040F4C77081E001C0880F3B
:102CC000CA95EAF70E949F03DF91CF911F910F9160
:102CD000089510912402141332C080912202909121
:102CE00023020E942418883C910548F5C0E2CD0FCC
:102CF0001D17B9F080E2810F883040F4177081E031
:102D000001C0880F1A95EAF70E94A603C83048F45C
:102D100081E09D2F977001C0880F9A95EAF70E9475
:102D20009F03802F0E949603C83070F6D77081E011
:102D300001C0880FDA95EAF70E94A603C5CF80E2AA
:102D40008C0F883008F6C77081E001C0880FCA95E3
:102D5000EAF7F2CF0F93DB0188519C47873091054A
:102D6000A0F5FC01ED56FD4D0C94BE2106E221EECE
:102D700041EE6AE17CE7CD010E94461680E00F91AA
:102D8000089507E225EE45EE6BE17CE7F4CF06E21D
:102D900021EE40EE68E17CE7EECF07E225EE44EE5F
:102DA00069E17CE7E8CF06E221EE42EE6CE17CE7E8
:102DB000E2CF07E225EE46EE6DE17CE7DCCF08E2EC
:102DC00021E045EE6EE17CE7D6CF15968C91882305
:102DD00019F010922402D3CF81E0D1CF9093270233
:102DE0008093260208950E94EC10811103C0809107
:102DF00025020895E0912602F0912702309729F0EC
:102E00000190F081E02D0995089580E00895E0910A
:102E10002602F0912702309721F00280F381E02D05
:102E2000099508959C012E5F3F4FAC01485F5F4FAD
:102E300080E02417350709F40895F90191919F0165
:102E40009923B9F38F5FF5CF662349F0FC013296E1
:102E500008962191261729F0E817F907D1F780E0A5
:102E6000089581E008959C01FC0132969FEF80E077
:102E70004191461751F09F3F19F4411101C0982F1D
:102E80008F5F8630A9F79F3F09F40895290F311D00
:102E900097FD3A95F90162830895FC0132960896F0
:102EA0002191261303C0DF0111971C92E817F9073F
:102EB000B9F708950E94331708950E944D17089599
:102EC000029626E0FC0111922A95E9F708950895EB
:102ED0000E9467170895811106C081E0809328023F
:102EE0000E946817089582E0F9CF83E0809328025A
:102EF0000E94681708950E946B17089581E08093DF
:102F000028020E94681708950E947E170895089568
:102F100008950E9488170895089508950E948717BC
:102F20000895CF930E948C170E9470100E948D17F5
:102F3000C0E08C2F0E94490F811105C0CF5FCA30BD
:102F4000C1F7CF91089581E0FCCF85B7806885BF38
:102F500085B7806885BF08951F921FB61F92112400
:102F60008F939F93AF93BF9380912902811113C0D8
:102F70008091580490915904A0915A04B0915B0437
:102F80004196A11DB11D8093580490935904A093BC
:102F90005A04B0935B04BF91AF919F918F911F90A2
:102FA0001FBE1F90189580916004843031F10E94FB
:102FB000B7021092290288E190E020E40FB6F8945D
:102FC000A895809360000FBE2093600083B7817F37
:102FD000846083BF83B7816083BF7894889583B70B
:102FE0008E7F83BF0FB6F894A895809160008861AA
:102FF00080936000109260000FBE08950E94C60585
:103000000E94BE02089582E084BD93E095BD9AEFD0
:1030100097BD80936E0008952FB7F894809158045F
:1030200090915904A0915A04B0915B042FBF089568
:103030002FB7F894609158047091590480915A0404
:1030400090915B042FBF08959C014FB7F894809135
:10305000580490915904A0915A04B0915B044FBF59
:10306000821B930B0895CF92DF92EF92FF922FB7BE
:10307000F894C0905804D0905904E0905A04F0900D
:103080005B042FBFA7019601261B370B480B590B7A
:10309000CA01B901FF90EF90DF90CF900895789426
:1030A0001F921FB61F9211248F939F93AF93BF93CC
:1030B0008091580490915904A0915A04B0915B04F6
:1030C0000196A11DB11D8093580490935904A093BB
:1030D0005A04B0935B04BF91AF919F918F911F9061
:1030E0001FBE1F90189587E797E79093010880937C
:1030F000000888E19AE00FB6F894A89580936000E4
:103100000FBE90936000FFCF88E19AE00FB6F8946D
:10311000A895809360000FBE90936000FFCF10923F
:10312000B9008CE08093B8000895B0E0A0E0EBE92E
:10313000F8E10C94CB21B82EEB010E940C186C0125
:10314000EE24E394F12CC431D10560F025E0E22EA9
:10315000F12CCF3FDC0731F0CE0164E170E00E943A
:10316000AA217B0184EAA82E94E8992E1092BC0033
:10317000A092BC000E940C188C018091BC0087FFBB
:103180000DC08091B900887F8830F9F08091B90036
:10319000887F8031D1F00FEF1FEF08C0C8010E9477
:1031A0002418E816F90648F70EEF1FEFCF3FDC07AB
:1031B000E9F2C6010E942418C817D907B8F6C80159
:1031C000CDB7DEB7EBE00C94E721B092BB00909254
:1031D000BC000E940C188C018091BC0087FF0AC0C3
:1031E0008091B900887F883111F08034A1F610E019
:1031F00000E0E5CFC8010E942418E816F90660F740
:10320000D3CF0F931F93CF93DF93EB018093BB003A
:1032100084E88093BC000E940C188C018091BC0053
:1032200087FF11C02091B900287F81E090E028320B
:1032300011F490E080E0919581959109DF91CF9113
:103240001F910F910895CF3FDC0741F3C8010E9401
:103250002418C817D90710F78EEF9FEFEFCFB0E013
:10326000A0E0E5E3F9E10C94CE216B018A0179013C
:10327000B9010E949518E6010C0D1D1DC017D1075C
:1032800011F097FF08C024E92093BC00CDB7DEB74A
:10329000E8E00C94EA21B70189910E940119EECF70
:1032A000B0E0A0E0E6E5F9E10C94CE21C62F6A017A
:1032B0007901B8010E94951897FD0CC0B8018C2FB8
:1032C0000E940119E601EC0CFD1CCE15DF0511F082
:1032D00097FF08C024E92093BC00CDB7DEB7E8E033
:1032E0000C94EA21B80189910E940119EECF84E97A
:1032F0008093BC0008958EE14A9B02C08150E1F7A3
:103300004A9BFECF08955A9880E28A95F1F75A9A1F
:103310000895FC013BE03A95F1F798E020E080E069
:1033200031E040E14A95F1F7880F4A9B02C0816085
:10333000232742E04A95F1F7000040E14A95F1F772
:10334000915079F790E19A95F1F799B132E03A9579
:10335000F1F7000040E14A95F1F792FB992790F9C7
:1033600092272081920F90830895A1E0B0E0EBEBCB
:10337000F9E10C94D02119828C017C01E60EF11C3C
:103380000E151F0541F481E09981911180E021968D
:10339000E6E00C94EC210E947B19CE0101960E947C
:1033A0008919F80181938F01EBCF529A5A9A0895A7
:1033B00052985A9AEA9AE9E6F0E080818F7C8083FD
:1033C00008956150770B91E001C0990F6A95EAF773
:1033D00020E031E0911108C0222391F05A9A80E256
:1033E0008A95F1F75A980895492F482339F05A9A47
:1033F000232740E24A95F1F79695ECCF5A98F9CFFA
:103400005A98EDCFFF920F931F93CF93DF93EC0168
:103410008C01060F111DC017D10729F4CDB7DEB7F7
:10342000E5E00C94ED21F9900E94831968E08F2D5E
:103430000E94E119F0CF1F920F920FB60F92112444
:103440000F931F932F933F934F935F936F937F93AC
:103450008F939F93AF93BF93EF93FF93CF93DF939C
:103460000F92CDB7DEB719820E947B19CE0101966B
:103470000E948919082F069506950695282F2295F2
:103480002570902F9570290F922F93702695269571
:10349000920F982797708981982B09F05CC00430AF
:1034A00008F059C080E18A95F1F75A9A529A82E061
:1034B0008A95F1F700C05A9888E0089F800111248E
:1034C000D801AD5FBE4F1696ED91FC9117973097DE
:1034D000A9F0609136017091370114962D913C91BD
:1034E0001597260F371F11968D919C911297680F93
:1034F000791F13964C9113978C910995F801ED5F04
:10350000FE4F6381662351F02091360130913701DF
:1035100084819581820F931F0E94021A0E94831951
:1035200080E18A95F1F75A9852985A9A80E18A95E3
:10353000F1F7F801ED5FFE4F6081662351F02091B5
:1035400036013091370181819281820F931F0E9451
:10355000B5190E947B190F90DF91CF91FF91EF91E8
:10356000BF91AF919F918F917F916F915F914F919B
:103570003F912F911F910F910F900FBE0F901F90B1
:1035800018950F931F93CF93DF93EC0104970CF0E2
:103590004CC0F894529A5A9885E08A95F1F7000049
:1035A0009C2F969595708C2F8570980F892F83701E
:1035B0009695969523E0CC0FDD1F2A95E1F7980F9D
:1035C0008E01092B0E94831900C068E0802F0E94A1
:1035D000E11980E18A95F1F752985A9A4A9B1EC0E8
:1035E00087E090E04A991CC0FE01ED5FFE4F6381C9
:1035F0006623F9F02091360130913701848195815D
:10360000820F931F0E94B519811113C0529A5A9AC2
:103610007894DF91CF911F910F91089500C0DECF74
:10362000019729F4529A5A9A789480E0F2CF00C018
:10363000D9CF0E947B1980E28A95F1F75A98529A65
:1036400080E18A95F1F7CD5FDE4F6881662351F006
:10365000209136013091370189819A81820F931F21
:103660000E94021A0E948319789481E0D2CF80913F
:1036700032020895089508959B01BA019091600463
:103680009430E9F48F708093E9009FEF8091E80017
:10369000915085FD06C085ED8A95F1F700009111E6
:1036A000F5CF8091E80085FF0AC050E040E0C901F5
:1036B0000E94111D8091E8008E778093E8000895A4
:1036C000CF93DF93EC0148E050E0BC0181E00E9421
:1036D0003C1B88E0FE01AAE2B2E001900D928A95BF
:1036E000E1F7DF91CF91089580915F04811109C0C6
:1036F0000E94A11E0E94FE1E8091E20084608093C1
:10370000E200089510925F0408950E947E170895C4
:1037100060915C0481E0611101C080E00E94751736
:1037200008959091600481E0943009F080E0609108
:103730005C040E947B17089542E061EC81E00E94E6
:103740001D1E9091600481E0943009F080E060914A
:103750005C040E946B17089580916204833009F421
:1037600061C030F48130D1F1823009F49EC00895F7
:103770008A3009F48AC08B3009F46FC0893009F0AF
:1037800050C080916104813209F04BC08091650482
:1037900090916604892B09F044C08091E800877FEE
:1037A0008093E8008091E80082FF37C09091F30099
:1037B0008091F200029731F48091F100813011F094
:1037C000863021F48091F100809332028091E800EC
:1037D0008B778093E8000E94511E23C08091610482
:1037E000813AF9F48091E800877F8093E800809126
:1037F000650490916604892B61F468E08AE292E0A6
:1038000070E00E94601D8091E8008B778093E80053
:10381000089560E090E080E0F3CF80916004811132
:10382000C1CF089580916104813AD9F780916504F0
:1038300090916604892BA9F78091E800877F809397
:10384000E8008091E80080FFFCCF80912A018093FE
:10385000F1008091E8008E77BCCF809161048132C5
:1038600001F78091650490916604892BD1F68091CF
:10387000E800877F8093E8000E94511E80916304D6
:1038800080932A010E94C6050895809161048132C7
:1038900041F68091E800877F8093E8000E94511EE6
:1038A0008091640480933302089580916104813A89
:1038B00009F0B7CF8091E800877F8093E80080917E
:1038C000E80080FFFCCF80913302C1CF84B7877FAF
:1038D00084BF0FB6F894A8958091600088618093AA
:1038E0006000109260000FBE80E890E00FB6F89480
:1038F00080936100909361000FBE0E948417089529
:103900000E94A11E0E94FE1EE2EEF0E08081846013
:10391000808378940E947D21089582E291E00E9444
:10392000EE16089580916004853031F48091600432
:10393000853019F00E94FE1708950E94D3178091D8
:103940005E04882399F30E949117882379F30E94DB
:10395000FB1C0E94C605EACF08959A0140916704B6
:10396000509168040E94B51C0895492F5527433093
:103970005105C9F058F44130510599F142305105D3
:10398000A9F190E080E050E040E01DC041325105D7
:1039900009F142325105A9F784E490E04CE053E08C
:1039A000672B79F710C099278130910581F0009736
:1039B00029F0029731F7E2EBF2E002C0E4EDF2E029
:1039C000849190E0AF01F901518340830895E2ECC6
:1039D000F2E0F6CF89E090E04AEE52E0672B89F6FC
:1039E000F2CF82E190E04AEF52E0EDCF82E290E048
:1039F00048ED52E0E8CF80E189BD82E189BD09B49C
:103A000000FEFDCF8091D8008F7D8093D8008091FB
:103A1000E00082608093E0008091E00081FDFCCFB7
:103A20000895AF92BF92CF92DF92FF920F931F93B0
:103A3000CF93DF936C01EB018A010E94701EF82E78
:103A4000811123C00115110539F0F80180819181A0
:103A5000C81BD90BC80ED91EB12CA12C2097A9F0D8
:103A60008091E80085FD22C08091E8008E778093E8
:103A7000E80001151105A1F0F80180819181A80EDF
:103A8000B91EB182A08285E0F82E8F2DDF91CF91F3
:103A90001F910F91FF90DF90CF90BF90AF9008954E
:103AA0000E94701E8823D1F2F82EEFCFF60181918B
:103AB0006F018093F1002197FFEFAF1ABF0ACECFBD
:103AC000FC01809167049091680486179707A0F025
:103AD0006115710529F49091E8009E779093E800B4
:103AE00090E06115710551F4911108C08091E800D2
:103AF00082FF34C080E00895BC01F2CF8091600461
:103B00008823C1F18530C1F18091E80083FD30C088
:103B10008091E80082FDEACF8091E80080FFE1CF4C
:103B20008091F3002091F200382F6115710519F092
:103B30002830310558F091E02830310509F090E047
:103B40002091E8002E772093E800CBCF81918093DD
:103B5000F100615071092F5F3F4FE7CF8091600402
:103B6000882341F0853041F08091E80083FFBECF8B
:103B700081E0089582E0089583E00895FC0180913A
:103B800067049091680486179707A0F06115710586
:103B900029F48091E8008E778093E80090E0611529
:103BA000710551F4911108C08091E80082FF35C081
:103BB00080E00895BC01F2CF809160048823C9F1B0
:103BC0008530C9F18091E80083FD31C08091E80023
:103BD00082FDEACF8091E80080FFE1CF8091F30081
:103BE0002091F200382F6115710519F02830310548
:103BF00058F091E02830310509F090E08091E8001C
:103C00008E778093E800CBCF84918093F10031963A
:103C1000615071092F5F3F4FE6CF80916004882388
:103C200041F0853041F08091E80083FFBDCF81E015
:103C3000089582E0089583E00895982F973028F042
:103C40008F708093E90081E008959093E900242F1C
:103C5000762F50E0981731F07091EC002091ED0034
:103C60005091F00021FD02C09F5FE8CF3091EB0042
:103C70003E7F3093EB003091ED003D7F3093ED00BF
:103C80003091EB0031603093EB007093EC002093A7
:103C9000ED005093F0002091EE0027FDE5CF80E08D
:103CA00008958091610487FF13C08091E80082FF2E
:103CB00006C08091E8008B778093E80004C0809173
:103CC00060048111F2CF0895809160048823D9F3B4
:103CD0008091E80080FFF8CF8091E8008E77ECCFEC
:103CE0002091E4003091E50095E6A9012091EC00D7
:103CF000822F817020FF06C08091E80080FF06C0FF
:103D000080E008952091E80022FD1AC080916004AF
:103D1000882389F0853089F08091EB0085FD0FC004
:103D20002091E4003091E50042175307F9F29150D9
:103D3000E1F684E0089582E0089583E0089581E04B
:103D400008950E94101F0E94181FE0EEF0E080818D
:103D500081608083E8EDF0E080818F77808319BCFB
:103D6000A7EDB0E08C918E7F8C9380818F7E8083D5
:103D700010925F0408950F931F93CF93DF930E94D7
:103D8000101F0E94181FC8EDD0E088818F778883AC
:103D900088818068888388818F7D888319BC109290
:103DA000600410925C0410925E0410925D0400EEB8
:103DB00010E0F80180818B7F808388818160888317
:103DC00042E060E080E00E941D1EE1EEF0E08081B4
:103DD0008E7F8083E2EEF0E080818160808380814D
:103DE00088608083F80180818E7F808388818061F4
:103DF0008883DF91CF911F910F910895E8EDF0E056
:103E000080818F7E8083E7EDF0E080818160808318
:103E100084E082BF81E080935F040E94BB1E08950E
:103E2000E8EDF0E080818E7F80831092E2000895BB
:103E30001092DA001092E10008951F920F920FB6CF
:103E40000F9211242F933F934F935F936F937F9320
:103E50008F939F93AF93BF93EF93FF938091E10074
:103E600082FF0BC08091E20082FF07C08091E100D9
:103E70008B7F8093E1000E947C218091DA0080FF9B
:103E800019C08091D80080FF15C08091DA008E7F24
:103E90008093DA008091D90080FF96C080E189BDCF
:103EA00082E189BD09B400FEFDCF81E0809360040A
:103EB0000E94741B8091E10080FF19C08091E20094
:103EC00080FF15C08091E2008E7F8093E200809198
:103ED000E20080618093E2008091D800806280934C
:103EE000D80019BC85E0809360040E94881B8091F3
:103EF000E10084FF2BC08091E20084FF27C080E1B5
:103F000089BD82E189BD89B5982F917080FFFBCF73
:103F10008091D8008F7D8093D8008091E1008F7EC2
:103F20008093E1008091E2008F7E8093E200809197
:103F3000E20081608093E20080915C04882309F4B0
:103F400049C084E0809360040E94911B8091E1004D
:103F500083FF29C08091E20083FF25C08091E100AA
:103F6000877F8093E10082E08093600410925C047C
:103F70008091E1008E7F8093E1008091E2008E7F4E
:103F80008093E2008091E20080618093E20042E051
:103F900060E080E00E941D1E8091F00088608093A8
:103FA000F0000E94851BFF91EF91BF91AF919F910F
:103FB0008F917F916F915F914F913F912F910F90D2
:103FC0000FBE0F901F90189519BC109260040E94AC
:103FD000821B70CF8091E30087FD93E09093600493
:103FE000B3CF1F920F920FB60F9211242F933F93CE
:103FF0004F935F936F937F938F939F93AF93BF93F1
:10400000CF93DF93EF93FF93D091E900DF7080911E
:10401000EC00C82FC17080FDC0E81092E9008091CB
:10402000F000877F8093F00078940E9435201092F2
:10403000E9008091F00088608093F000CD2BCF7074
:10404000C093E900FF91EF91DF91CF91BF91AF91C4
:104050009F918F917F916F915F914F913F912F91A0
:104060000F900FBE0F901F901895AAE2B0E0EBE3FF
:10407000F0E20C94D32181E694E02091F100FC0160
:104080002193CF01F4E089369F07B9F70E94AC1B5A
:104090008091E80083FF1EC18091610490916204C9
:1040A0009A3008F017C1E92FF0E0E656FD4D0C9468
:1040B000BE21803899F0823809F00CC180916504E6
:1040C0008F70873008F006C18093E9008091EB0083
:1040D00085FB882780F91092E90006C080915D0475
:1040E00090915E04911182609091E800977F909387
:1040F000E8008093F1001092F1008091E8008E7743
:10410000E5C0882309F4D3C0823009F0E3C0809170
:1041100063048111D6C0809165048F702FEF280F42
:10412000263008F0D7C08093E9002091EB0020FFF3
:10413000C8C0933031F48091EB0080628093EB0033
:10414000C0C09091EB0090619093EB0021E030E0D3
:1041500001C0220F8A95EAF72093EA001092EA0044
:104160008091EB008860EACF8111B4C010916304A4
:104170001F778091E3008078812B8093E30080910A
:10418000E800877F8093E8000E94511E8091E8003C
:1041900080FFFCCF8091E30080688093E30082E0A1
:1041A000111183E08093600495C08058823008F03C
:1041B00091C080916304909164048C3D23E0920748
:1041C000A1F583E08A838AE289834FB7F894DE0100
:1041D000139620E03EE051E2E32FF0E050935700C9
:1041E000E49120FF03C0E295EF703F5FEF708E2FE8
:1041F00090E0EA30C0F0C7968D939D932F5F2431F5
:1042000059F74FBF8091E800877F8093E8006AE20A
:1042100070E0CE0101960E94601D8091E8008B77CE
:104220008093E80057C0C096E7CF60916504709115
:104230006604AE014F5F5F4F0E94AD1CBC01892B2D
:1042400009F448C09091E800977F9093E800898135
:104250009A810E94BE1DE1CF8038E1F58091E8008F
:10426000877F8093E80080915C048093F10045CFC4
:10427000811130C090916304923060F58091E80024
:10428000877F8093E80090935C040E94511E809188
:104290005C04882311F084E005C08091E30087FD71
:1042A000FACF81E0809360040E949C1B13C0809130
:1042B0006304813079F481E0933009F080E08093E9
:1042C0005E041092E9008091E800877F8093E80007
:1042D0000E94511E8091E80083FF0AC08091E8008F
:1042E000877F8093E8008091EB0080628093EB00F1
:1042F000AA96E3E00C94EF210895CF938091600497
:104300008823A1F0C091E900CF709091EC00892F33
:10431000817090FD80E8C82B1092E9008091E80040
:1043200083FD0E943520CF70C093E900CF9108959E
:104330000E94A11E109260040895E8EDF0E08081D3
:10434000806180838AE18A95F1F700C08091D9006D
:1043500081700895AA1BBB1B51E107C0AA1FBB1F98
:10436000A617B70710F0A61BB70B881F991F5A9501
:10437000A9F780959095BC01CD010895EE0FFF1F20
:104380000590F491E02D09942F923F924F925F9205
:104390006F927F928F929F92AF92BF92CF92DF9255
:1043A000EF92FF920F931F93CF93DF93CDB7DEB7BA
:1043B000CA1BDB0B0FB6F894DEBF0FBECDBF09944E
:1043C0002A88398848885F846E847D848C849B84A5
:1043D000AA84B984C884DF80EE80FD800C811B81B3
:1043E000AA81B981CE0FD11D0FB6F894DEBF0FBEE2
:1043F000CDBFED010895FB01DC0104C08D9101905A
:10440000801921F441505040C8F7881B990B08953A
:10441000FB01DC0102C001900D9241505040D8F7E1
:104420000895F999FECF92BD81BDF89A992780B57C
:104430000895A8E1B0E042E050E00C945522DC0180
:10444000A40FB51F4150504048F0CB01840F951F79
:104450002E910E94302241505040D0F70895262FCF
:10446000F999FECF92BD81BDF89A019700B402166A
:1044700039F01FBA20BD0FB6F894FA9AF99A0FBE18
:1044800008950396272F0E9430220E942F22252F65
:104490000E943022242F0C9430220196272F0E9454
:1044A00030220C942F22DC01CB01FC01F999FECFC4
:1044B00006C0F2BDE1BDF89A319600B40D924150AC
:1044C0005040B8F70895F894FFCFEC03EC033C0498
:1044D0003C041B041B041B041B04A104120521053E
:1044E000210598150C16A0156A156E15A4157215E0
:1044F000A815B4157E1505168215B8158615BC15B8
:10450000E4158A15C015EB159015C615CE15761550
:10451000AC157A15B0159415CA15DA15F4150316ED
:1045200064159C151316C716CD16B616C116D316EC
:10453000D916DF16592081206A2181206A21B420F2
:08454000D5206A212C2138214D
:10454800B8010100000001000000000000000501A2
:1045580000000004060000000000000021007F2287
:104568000003371B601B3B1B3A1B01F6F731333244
:10457800366697C63435DF01000810181810080091
:00000001FF
